{
    "address": "0x2c39a1505240Bda58F7c06B89fFdc02d4e232260",
    "abi": [
        {
            "inputs": [
                {
                    "internalType": "address",
                    "name": "vrfCoordinator",
                    "type": "address"
                },
                {
                    "internalType": "uint256",
                    "name": "enteranceFee",
                    "type": "uint256"
                },
                {
                    "internalType": "bytes32",
                    "name": "gasLen",
                    "type": "bytes32"
                },
                {
                    "internalType": "uint256",
                    "name": "subscriptionId",
                    "type": "uint256"
                },
                {
                    "internalType": "uint32",
                    "name": "callbackGasLimit",
                    "type": "uint32"
                },
                {
                    "internalType": "uint256",
                    "name": "interval",
                    "type": "uint256"
                }
            ],
            "stateMutability": "nonpayable",
            "type": "constructor"
        },
        {
            "inputs": [
                {
                    "internalType": "address",
                    "name": "have",
                    "type": "address"
                },
                {
                    "internalType": "address",
                    "name": "want",
                    "type": "address"
                }
            ],
            "name": "OnlyCoordinatorCanFulfill",
            "type": "error"
        },
        {
            "inputs": [
                {
                    "internalType": "address",
                    "name": "have",
                    "type": "address"
                },
                {
                    "internalType": "address",
                    "name": "owner",
                    "type": "address"
                },
                {
                    "internalType": "address",
                    "name": "coordinator",
                    "type": "address"
                }
            ],
            "name": "OnlyOwnerOrCoordinator",
            "type": "error"
        },
        {
            "inputs": [],
            "name": "Raffle__NotEnoughETHEntered",
            "type": "error"
        },
        {
            "inputs": [],
            "name": "Raffle__RaffleNotOpen",
            "type": "error"
        },
        {
            "inputs": [],
            "name": "Raffle__TransferFailed",
            "type": "error"
        },
        {
            "inputs": [
                {
                    "internalType": "uint256",
                    "name": "currentBalance",
                    "type": "uint256"
                },
                {
                    "internalType": "uint256",
                    "name": "numPlayers",
                    "type": "uint256"
                },
                {
                    "internalType": "uint256",
                    "name": "raffleState",
                    "type": "uint256"
                }
            ],
            "name": "Raffle__UpkeepNotNeeded",
            "type": "error"
        },
        {
            "inputs": [],
            "name": "ZeroAddress",
            "type": "error"
        },
        {
            "anonymous": false,
            "inputs": [
                {
                    "indexed": false,
                    "internalType": "address",
                    "name": "vrfCoordinator",
                    "type": "address"
                }
            ],
            "name": "CoordinatorSet",
            "type": "event"
        },
        {
            "anonymous": false,
            "inputs": [
                {
                    "indexed": true,
                    "internalType": "address",
                    "name": "from",
                    "type": "address"
                },
                {
                    "indexed": true,
                    "internalType": "address",
                    "name": "to",
                    "type": "address"
                }
            ],
            "name": "OwnershipTransferRequested",
            "type": "event"
        },
        {
            "anonymous": false,
            "inputs": [
                {
                    "indexed": true,
                    "internalType": "address",
                    "name": "from",
                    "type": "address"
                },
                {
                    "indexed": true,
                    "internalType": "address",
                    "name": "to",
                    "type": "address"
                }
            ],
            "name": "OwnershipTransferred",
            "type": "event"
        },
        {
            "anonymous": false,
            "inputs": [
                {
                    "indexed": true,
                    "internalType": "address",
                    "name": "player",
                    "type": "address"
                }
            ],
            "name": "RaffleEnter",
            "type": "event"
        },
        {
            "anonymous": false,
            "inputs": [
                {
                    "indexed": true,
                    "internalType": "uint256",
                    "name": "requestId",
                    "type": "uint256"
                }
            ],
            "name": "RequsetRaffleWinner",
            "type": "event"
        },
        {
            "anonymous": false,
            "inputs": [
                {
                    "indexed": true,
                    "internalType": "address",
                    "name": "player",
                    "type": "address"
                }
            ],
            "name": "WinnerPicked",
            "type": "event"
        },
        {
            "inputs": [],
            "name": "acceptOwnership",
            "outputs": [],
            "stateMutability": "nonpayable",
            "type": "function"
        },
        {
            "inputs": [
                {
                    "internalType": "bytes",
                    "name": "",
                    "type": "bytes"
                }
            ],
            "name": "checkUpkeep",
            "outputs": [
                {
                    "internalType": "bool",
                    "name": "upkeepNeeded",
                    "type": "bool"
                },
                {
                    "internalType": "bytes",
                    "name": "",
                    "type": "bytes"
                }
            ],
            "stateMutability": "view",
            "type": "function"
        },
        {
            "inputs": [],
            "name": "enterRaffle",
            "outputs": [],
            "stateMutability": "payable",
            "type": "function"
        },
        {
            "inputs": [],
            "name": "getEntranceFee",
            "outputs": [
                {
                    "internalType": "uint256",
                    "name": "",
                    "type": "uint256"
                }
            ],
            "stateMutability": "view",
            "type": "function"
        },
        {
            "inputs": [],
            "name": "getInterval",
            "outputs": [
                {
                    "internalType": "uint256",
                    "name": "",
                    "type": "uint256"
                }
            ],
            "stateMutability": "view",
            "type": "function"
        },
        {
            "inputs": [],
            "name": "getLastTimeStamp",
            "outputs": [
                {
                    "internalType": "uint256",
                    "name": "",
                    "type": "uint256"
                }
            ],
            "stateMutability": "view",
            "type": "function"
        },
        {
            "inputs": [],
            "name": "getNumWords",
            "outputs": [
                {
                    "internalType": "uint256",
                    "name": "",
                    "type": "uint256"
                }
            ],
            "stateMutability": "pure",
            "type": "function"
        },
        {
            "inputs": [],
            "name": "getNumberOfPlayers",
            "outputs": [
                {
                    "internalType": "uint256",
                    "name": "",
                    "type": "uint256"
                }
            ],
            "stateMutability": "view",
            "type": "function"
        },
        {
            "inputs": [
                {
                    "internalType": "uint256",
                    "name": "index",
                    "type": "uint256"
                }
            ],
            "name": "getPlayer",
            "outputs": [
                {
                    "internalType": "address",
                    "name": "",
                    "type": "address"
                }
            ],
            "stateMutability": "view",
            "type": "function"
        },
        {
            "inputs": [],
            "name": "getRaffleState",
            "outputs": [
                {
                    "internalType": "enum Raffle.RaffleState",
                    "name": "",
                    "type": "uint8"
                }
            ],
            "stateMutability": "view",
            "type": "function"
        },
        {
            "inputs": [],
            "name": "getRecentWinner",
            "outputs": [
                {
                    "internalType": "address",
                    "name": "",
                    "type": "address"
                }
            ],
            "stateMutability": "view",
            "type": "function"
        },
        {
            "inputs": [],
            "name": "getRequestConfirmations",
            "outputs": [
                {
                    "internalType": "uint256",
                    "name": "",
                    "type": "uint256"
                }
            ],
            "stateMutability": "pure",
            "type": "function"
        },
        {
            "inputs": [],
            "name": "owner",
            "outputs": [
                {
                    "internalType": "address",
                    "name": "",
                    "type": "address"
                }
            ],
            "stateMutability": "view",
            "type": "function"
        },
        {
            "inputs": [
                {
                    "internalType": "bytes",
                    "name": "",
                    "type": "bytes"
                }
            ],
            "name": "performUpkeep",
            "outputs": [],
            "stateMutability": "nonpayable",
            "type": "function"
        },
        {
            "inputs": [
                {
                    "internalType": "uint256",
                    "name": "requestId",
                    "type": "uint256"
                },
                {
                    "internalType": "uint256[]",
                    "name": "randomWords",
                    "type": "uint256[]"
                }
            ],
            "name": "rawFulfillRandomWords",
            "outputs": [],
            "stateMutability": "nonpayable",
            "type": "function"
        },
        {
            "inputs": [],
            "name": "s_vrfCoordinator",
            "outputs": [
                {
                    "internalType": "contract IVRFCoordinatorV2Plus",
                    "name": "",
                    "type": "address"
                }
            ],
            "stateMutability": "view",
            "type": "function"
        },
        {
            "inputs": [
                {
                    "internalType": "address",
                    "name": "_vrfCoordinator",
                    "type": "address"
                }
            ],
            "name": "setCoordinator",
            "outputs": [],
            "stateMutability": "nonpayable",
            "type": "function"
        },
        {
            "inputs": [
                {
                    "internalType": "address",
                    "name": "to",
                    "type": "address"
                }
            ],
            "name": "transferOwnership",
            "outputs": [],
            "stateMutability": "nonpayable",
            "type": "function"
        }
    ],
    "transactionHash": "0xc0a0721208b80f77f71eb5f0b9e988776c2298e114b62aa4b2c28b1a7d6d9fd0",
    "args": [
        "0x9DdfaCa8183c41ad55329BdeeD9F6A8d53168B1B",
        "10000000000000000",
        "0x787d74caea10b2b357790d5b5247c2f63d1d91572a9846f780606e4d953677ae",
        "58719440745824554760683641117229548609835354899292715516135670765460973904688",
        "500000",
        "30"
    ],
    "numDeployments": 1,
    "solcInputHash": "58cef4ef4833449e147df0ec26d42085",
    "bytecode": "0x610140604052600163ffffffff166101009063ffffffff168152503480156200002757600080fd5b50604051620025be380380620025be83398181016040528101906200004d9190620004bc565b85338060008073ffffffffffffffffffffffffffffffffffffffff168273ffffffffffffffffffffffffffffffffffffffff1603620000c3576040517f08c379a0000000000000000000000000000000000000000000000000000000008152600401620000ba90620005b9565b60405180910390fd5b816000806101000a81548173ffffffffffffffffffffffffffffffffffffffff021916908373ffffffffffffffffffffffffffffffffffffffff160217905550600073ffffffffffffffffffffffffffffffffffffffff168173ffffffffffffffffffffffffffffffffffffffff16146200014a5762000149816200026c60201b60201c565b5b505050600073ffffffffffffffffffffffffffffffffffffffff168173ffffffffffffffffffffffffffffffffffffffff1603620001b4576040517fd92e233d00000000000000000000000000000000000000000000000000000000815260040160405180910390fd5b80600260006101000a81548173ffffffffffffffffffffffffffffffffffffffff021916908373ffffffffffffffffffffffffffffffffffffffff1602179055505084608081815250508360c081815250508260a081815250508163ffffffff1660e08163ffffffff16815250506000600660006101000a81548160ff021916908360018111156200024b576200024a620005db565b5b0217905550426003819055508061012081815250505050505050506200067c565b3373ffffffffffffffffffffffffffffffffffffffff168173ffffffffffffffffffffffffffffffffffffffff1603620002dd576040517f08c379a0000000000000000000000000000000000000000000000000000000008152600401620002d4906200065a565b60405180910390fd5b80600160006101000a81548173ffffffffffffffffffffffffffffffffffffffff021916908373ffffffffffffffffffffffffffffffffffffffff1602179055508073ffffffffffffffffffffffffffffffffffffffff1660008054906101000a900473ffffffffffffffffffffffffffffffffffffffff1673ffffffffffffffffffffffffffffffffffffffff167fed8889f560326eb138920d842192f0eb3dd22b4f139c87a2c57538e05bae127860405160405180910390a350565b600080fd5b600073ffffffffffffffffffffffffffffffffffffffff82169050919050565b6000620003cd82620003a0565b9050919050565b620003df81620003c0565b8114620003eb57600080fd5b50565b600081519050620003ff81620003d4565b92915050565b6000819050919050565b6200041a8162000405565b81146200042657600080fd5b50565b6000815190506200043a816200040f565b92915050565b6000819050919050565b620004558162000440565b81146200046157600080fd5b50565b60008151905062000475816200044a565b92915050565b600063ffffffff82169050919050565b62000496816200047b565b8114620004a257600080fd5b50565b600081519050620004b6816200048b565b92915050565b60008060008060008060c08789031215620004dc57620004db6200039b565b5b6000620004ec89828a01620003ee565b9650506020620004ff89828a0162000429565b95505060406200051289828a0162000464565b94505060606200052589828a0162000429565b93505060806200053889828a01620004a5565b92505060a06200054b89828a0162000429565b9150509295509295509295565b600082825260208201905092915050565b7f43616e6e6f7420736574206f776e657220746f207a65726f0000000000000000600082015250565b6000620005a160188362000558565b9150620005ae8262000569565b602082019050919050565b60006020820190508181036000830152620005d48162000592565b9050919050565b7f4e487b7100000000000000000000000000000000000000000000000000000000600052602160045260246000fd5b7f43616e6e6f74207472616e7366657220746f2073656c66000000000000000000600082015250565b60006200064260178362000558565b91506200064f826200060a565b602082019050919050565b60006020820190508181036000830152620006758162000633565b9050919050565b60805160a05160c05160e0516101005161012051611edd620006e1600039600081816109770152610d990152600081816107f401526108fd015260006107c8015260006107710152600061079701526000818161040001526105030152611edd6000f3fe6080604052600436106101095760003560e01c806379ba5097116100955780639eccacf6116100645780639eccacf614610315578063c1c244e814610340578063e55ae4e81461036b578063f2fde38b146103a8578063fd6673f5146103d157610109565b806379ba50971461027f5780638da5cb5b146102965780638ea98117146102c157806391ad27b4146102ea57610109565b80634585e33b116100dc5780634585e33b14610197578063473f1ddc146101c057806353a2c19a146101eb5780635f1b0fd8146102165780636e04ff0d1461024157610109565b806309bc33a71461010e578063115cbaf5146101395780631fe543e3146101645780632cfcc5391461018d575b600080fd5b34801561011a57600080fd5b506101236103fc565b604051610130919061139d565b60405180910390f35b34801561014557600080fd5b5061014e610424565b60405161015b919061142f565b60405180910390f35b34801561017057600080fd5b5061018b600480360381019061018691906114ef565b61043b565b005b610195610501565b005b3480156101a357600080fd5b506101be60048036038101906101b991906115a5565b610670565b005b3480156101cc57600080fd5b506101d56108cf565b6040516101e29190611633565b60405180910390f35b3480156101f757600080fd5b506102006108f9565b60405161020d919061139d565b60405180910390f35b34801561022257600080fd5b5061022b610927565b604051610238919061139d565b60405180910390f35b34801561024d57600080fd5b506102686004803603810190610263919061178f565b610934565b604051610276929190611872565b60405180910390f35b34801561028b57600080fd5b506102946109f6565b005b3480156102a257600080fd5b506102ab610b8b565b6040516102b89190611633565b60405180910390f35b3480156102cd57600080fd5b506102e860048036038101906102e391906118ce565b610bb4565b005b3480156102f657600080fd5b506102ff610d95565b60405161030c919061139d565b60405180910390f35b34801561032157600080fd5b5061032a610dbd565b604051610337919061195a565b60405180910390f35b34801561034c57600080fd5b50610355610de3565b604051610362919061139d565b60405180910390f35b34801561037757600080fd5b50610392600480360381019061038d9190611975565b610ded565b60405161039f9190611633565b60405180910390f35b3480156103b457600080fd5b506103cf60048036038101906103ca91906118ce565b610e35565b005b3480156103dd57600080fd5b506103e6610e49565b6040516103f3919061139d565b60405180910390f35b60007f0000000000000000000000000000000000000000000000000000000000000000905090565b6000600660009054906101000a900460ff16905090565b600260009054906101000a900473ffffffffffffffffffffffffffffffffffffffff1673ffffffffffffffffffffffffffffffffffffffff163373ffffffffffffffffffffffffffffffffffffffff16146104f15733600260009054906101000a900473ffffffffffffffffffffffffffffffffffffffff166040517f1cf993f40000000000000000000000000000000000000000000000000000000081526004016104e89291906119a2565b60405180910390fd5b6104fc838383610e56565b505050565b7f000000000000000000000000000000000000000000000000000000000000000034101561055b576040517fbd4e069500000000000000000000000000000000000000000000000000000000815260040160405180910390fd5b6000600181111561056f5761056e6113b8565b5b600660009054906101000a900460ff166001811115610591576105906113b8565b5b146105c8576040517fd24a271400000000000000000000000000000000000000000000000000000000815260040160405180910390fd5b6005339080600181540180825580915050600190039060005260206000200160009091909190916101000a81548173ffffffffffffffffffffffffffffffffffffffff021916908373ffffffffffffffffffffffffffffffffffffffff1602179055503373ffffffffffffffffffffffffffffffffffffffff167f0805e1d667bddb8a95f0f09880cf94f403fb596ce79928d9f29b74203ba284d460405160405180910390a2565b600061068a60405180602001604052806000815250610934565b509050806106f95747600580549050600660009054906101000a900460ff1660018111156106bb576106ba6113b8565b5b6040517f584327aa0000000000000000000000000000000000000000000000000000000081526004016106f0939291906119cb565b60405180910390fd5b6001600660006101000a81548160ff0219169083600181111561071f5761071e6113b8565b5b02179055506000600260009054906101000a900473ffffffffffffffffffffffffffffffffffffffff1673ffffffffffffffffffffffffffffffffffffffff16639b1c385e6040518060c001604052807f000000000000000000000000000000000000000000000000000000000000000081526020017f00000000000000000000000000000000000000000000000000000000000000008152602001600361ffff1681526020017f000000000000000000000000000000000000000000000000000000000000000063ffffffff1681526020017f000000000000000000000000000000000000000000000000000000000000000063ffffffff168152602001610838604051806020016040528060001515815250611089565b8152506040518263ffffffff1660e01b81526004016108579190611b39565b6020604051808303816000875af1158015610876573d6000803e3d6000fd5b505050506040513d601f19601f8201168201806040525081019061089a9190611b70565b9050807f0f3bcc5bcd05fa88450cd39ebe10f514c1c21fa54a63740033a685f789203ba860405160405180910390a250505050565b6000600460009054906101000a900473ffffffffffffffffffffffffffffffffffffffff16905090565b60007f000000000000000000000000000000000000000000000000000000000000000063ffffffff16905090565b6000600361ffff16905090565b600060606000600660009054906101000a900460ff16600181111561095c5761095b6113b8565b5b600060018111156109705761096f6113b8565b5b14905060007f0000000000000000000000000000000000000000000000000000000000000000600354426109a49190611bcc565b119050600080600580549050119050600080471190508280156109c45750835b80156109cd5750805b80156109d65750815b955085604051806020016040528060008152509550955050505050915091565b600160009054906101000a900473ffffffffffffffffffffffffffffffffffffffff1673ffffffffffffffffffffffffffffffffffffffff163373ffffffffffffffffffffffffffffffffffffffff1614610a86576040517f08c379a0000000000000000000000000000000000000000000000000000000008152600401610a7d90611c5d565b60405180910390fd5b60008060009054906101000a900473ffffffffffffffffffffffffffffffffffffffff169050336000806101000a81548173ffffffffffffffffffffffffffffffffffffffff021916908373ffffffffffffffffffffffffffffffffffffffff1602179055506000600160006101000a81548173ffffffffffffffffffffffffffffffffffffffff021916908373ffffffffffffffffffffffffffffffffffffffff1602179055503373ffffffffffffffffffffffffffffffffffffffff168173ffffffffffffffffffffffffffffffffffffffff167f8be0079c531659141344cd1fd0a4f28419497f9722a3daafe3b4186f6b6457e060405160405180910390a350565b60008060009054906101000a900473ffffffffffffffffffffffffffffffffffffffff16905090565b610bbc610b8b565b73ffffffffffffffffffffffffffffffffffffffff163373ffffffffffffffffffffffffffffffffffffffff1614158015610c455750600260009054906101000a900473ffffffffffffffffffffffffffffffffffffffff1673ffffffffffffffffffffffffffffffffffffffff163373ffffffffffffffffffffffffffffffffffffffff1614155b15610cb45733610c53610b8b565b600260009054906101000a900473ffffffffffffffffffffffffffffffffffffffff166040517f061db9c1000000000000000000000000000000000000000000000000000000008152600401610cab93929190611c7d565b60405180910390fd5b600073ffffffffffffffffffffffffffffffffffffffff168173ffffffffffffffffffffffffffffffffffffffff1603610d1a576040517fd92e233d00000000000000000000000000000000000000000000000000000000815260040160405180910390fd5b80600260006101000a81548173ffffffffffffffffffffffffffffffffffffffff021916908373ffffffffffffffffffffffffffffffffffffffff1602179055507fd1a6a14209a385a964d036e404cb5cfb71f4000cdb03c9366292430787261be681604051610d8a9190611633565b60405180910390a150565b60007f0000000000000000000000000000000000000000000000000000000000000000905090565b600260009054906101000a900473ffffffffffffffffffffffffffffffffffffffff1681565b6000600354905090565b600060058281548110610e0357610e02611cb4565b5b9060005260206000200160009054906101000a900473ffffffffffffffffffffffffffffffffffffffff169050919050565b610e3d611121565b610e46816111b1565b50565b6000600580549050905090565b600060058054905083836000818110610e7257610e71611cb4565b5b90506020020135610e839190611d12565b9050600060058281548110610e9b57610e9a611cb4565b5b9060005260206000200160009054906101000a900473ffffffffffffffffffffffffffffffffffffffff16905080600460006101000a81548173ffffffffffffffffffffffffffffffffffffffff021916908373ffffffffffffffffffffffffffffffffffffffff160217905550600067ffffffffffffffff811115610f2457610f23611664565b5b604051908082528060200260200182016040528015610f525781602001602082028036833780820191505090505b5060059080519060200190610f689291906112dd565b506000600660006101000a81548160ff02191690836001811115610f8f57610f8e6113b8565b5b02179055504260038190555060008173ffffffffffffffffffffffffffffffffffffffff1647604051610fc190611d74565b60006040518083038185875af1925050503d8060008114610ffe576040519150601f19603f3d011682016040523d82523d6000602084013e611003565b606091505b505090508061103e576040517fa1d04b3900000000000000000000000000000000000000000000000000000000815260040160405180910390fd5b8173ffffffffffffffffffffffffffffffffffffffff167f5b690ec4a06fe979403046eaeea5b3ce38524683c3001f662c8b5a829632f7df60405160405180910390a2505050505050565b60607f92fd13387c7fe7befbc38d303d6468778fb9731bc4583f17d92989c6fcfdeaaa826040516024016110bd9190611db4565b604051602081830303815290604052907bffffffffffffffffffffffffffffffffffffffffffffffffffffffff19166020820180517bffffffffffffffffffffffffffffffffffffffffffffffffffffffff83818316178352505050509050919050565b60008054906101000a900473ffffffffffffffffffffffffffffffffffffffff1673ffffffffffffffffffffffffffffffffffffffff163373ffffffffffffffffffffffffffffffffffffffff16146111af576040517f08c379a00000000000000000000000000000000000000000000000000000000081526004016111a690611e1b565b60405180910390fd5b565b3373ffffffffffffffffffffffffffffffffffffffff168173ffffffffffffffffffffffffffffffffffffffff160361121f576040517f08c379a000000000000000000000000000000000000000000000000000000000815260040161121690611e87565b60405180910390fd5b80600160006101000a81548173ffffffffffffffffffffffffffffffffffffffff021916908373ffffffffffffffffffffffffffffffffffffffff1602179055508073ffffffffffffffffffffffffffffffffffffffff1660008054906101000a900473ffffffffffffffffffffffffffffffffffffffff1673ffffffffffffffffffffffffffffffffffffffff167fed8889f560326eb138920d842192f0eb3dd22b4f139c87a2c57538e05bae127860405160405180910390a350565b828054828255906000526020600020908101928215611356579160200282015b828111156113555782518260006101000a81548173ffffffffffffffffffffffffffffffffffffffff021916908373ffffffffffffffffffffffffffffffffffffffff160217905550916020019190600101906112fd565b5b5090506113639190611367565b5090565b5b80821115611380576000816000905550600101611368565b5090565b6000819050919050565b61139781611384565b82525050565b60006020820190506113b2600083018461138e565b92915050565b7f4e487b7100000000000000000000000000000000000000000000000000000000600052602160045260246000fd5b600281106113f8576113f76113b8565b5b50565b6000819050611409826113e7565b919050565b6000611419826113fb565b9050919050565b6114298161140e565b82525050565b60006020820190506114446000830184611420565b92915050565b6000604051905090565b600080fd5b600080fd5b61146781611384565b811461147257600080fd5b50565b6000813590506114848161145e565b92915050565b600080fd5b600080fd5b600080fd5b60008083601f8401126114af576114ae61148a565b5b8235905067ffffffffffffffff8111156114cc576114cb61148f565b5b6020830191508360208202830111156114e8576114e7611494565b5b9250929050565b60008060006040848603121561150857611507611454565b5b600061151686828701611475565b935050602084013567ffffffffffffffff81111561153757611536611459565b5b61154386828701611499565b92509250509250925092565b60008083601f8401126115655761156461148a565b5b8235905067ffffffffffffffff8111156115825761158161148f565b5b60208301915083600182028301111561159e5761159d611494565b5b9250929050565b600080602083850312156115bc576115bb611454565b5b600083013567ffffffffffffffff8111156115da576115d9611459565b5b6115e68582860161154f565b92509250509250929050565b600073ffffffffffffffffffffffffffffffffffffffff82169050919050565b600061161d826115f2565b9050919050565b61162d81611612565b82525050565b60006020820190506116486000830184611624565b92915050565b600080fd5b6000601f19601f8301169050919050565b7f4e487b7100000000000000000000000000000000000000000000000000000000600052604160045260246000fd5b61169c82611653565b810181811067ffffffffffffffff821117156116bb576116ba611664565b5b80604052505050565b60006116ce61144a565b90506116da8282611693565b919050565b600067ffffffffffffffff8211156116fa576116f9611664565b5b61170382611653565b9050602081019050919050565b82818337600083830152505050565b600061173261172d846116df565b6116c4565b90508281526020810184848401111561174e5761174d61164e565b5b611759848285611710565b509392505050565b600082601f8301126117765761177561148a565b5b813561178684826020860161171f565b91505092915050565b6000602082840312156117a5576117a4611454565b5b600082013567ffffffffffffffff8111156117c3576117c2611459565b5b6117cf84828501611761565b91505092915050565b60008115159050919050565b6117ed816117d8565b82525050565b600081519050919050565b600082825260208201905092915050565b60005b8381101561182d578082015181840152602081019050611812565b60008484015250505050565b6000611844826117f3565b61184e81856117fe565b935061185e81856020860161180f565b61186781611653565b840191505092915050565b600060408201905061188760008301856117e4565b81810360208301526118998184611839565b90509392505050565b6118ab81611612565b81146118b657600080fd5b50565b6000813590506118c8816118a2565b92915050565b6000602082840312156118e4576118e3611454565b5b60006118f2848285016118b9565b91505092915050565b6000819050919050565b600061192061191b611916846115f2565b6118fb565b6115f2565b9050919050565b600061193282611905565b9050919050565b600061194482611927565b9050919050565b61195481611939565b82525050565b600060208201905061196f600083018461194b565b92915050565b60006020828403121561198b5761198a611454565b5b600061199984828501611475565b91505092915050565b60006040820190506119b76000830185611624565b6119c46020830184611624565b9392505050565b60006060820190506119e0600083018661138e565b6119ed602083018561138e565b6119fa604083018461138e565b949350505050565b6000819050919050565b611a1581611a02565b82525050565b611a2481611384565b82525050565b600061ffff82169050919050565b611a4181611a2a565b82525050565b600063ffffffff82169050919050565b611a6081611a47565b82525050565b600082825260208201905092915050565b6000611a82826117f3565b611a8c8185611a66565b9350611a9c81856020860161180f565b611aa581611653565b840191505092915050565b600060c083016000830151611ac86000860182611a0c565b506020830151611adb6020860182611a1b565b506040830151611aee6040860182611a38565b506060830151611b016060860182611a57565b506080830151611b146080860182611a57565b5060a083015184820360a0860152611b2c8282611a77565b9150508091505092915050565b60006020820190508181036000830152611b538184611ab0565b905092915050565b600081519050611b6a8161145e565b92915050565b600060208284031215611b8657611b85611454565b5b6000611b9484828501611b5b565b91505092915050565b7f4e487b7100000000000000000000000000000000000000000000000000000000600052601160045260246000fd5b6000611bd782611384565b9150611be283611384565b9250828203905081811115611bfa57611bf9611b9d565b5b92915050565b600082825260208201905092915050565b7f4d7573742062652070726f706f736564206f776e657200000000000000000000600082015250565b6000611c47601683611c00565b9150611c5282611c11565b602082019050919050565b60006020820190508181036000830152611c7681611c3a565b9050919050565b6000606082019050611c926000830186611624565b611c9f6020830185611624565b611cac6040830184611624565b949350505050565b7f4e487b7100000000000000000000000000000000000000000000000000000000600052603260045260246000fd5b7f4e487b7100000000000000000000000000000000000000000000000000000000600052601260045260246000fd5b6000611d1d82611384565b9150611d2883611384565b925082611d3857611d37611ce3565b5b828206905092915050565b600081905092915050565b50565b6000611d5e600083611d43565b9150611d6982611d4e565b600082019050919050565b6000611d7f82611d51565b9150819050919050565b611d92816117d8565b82525050565b602082016000820151611dae6000850182611d89565b50505050565b6000602082019050611dc96000830184611d98565b92915050565b7f4f6e6c792063616c6c61626c65206279206f776e657200000000000000000000600082015250565b6000611e05601683611c00565b9150611e1082611dcf565b602082019050919050565b60006020820190508181036000830152611e3481611df8565b9050919050565b7f43616e6e6f74207472616e7366657220746f2073656c66000000000000000000600082015250565b6000611e71601783611c00565b9150611e7c82611e3b565b602082019050919050565b60006020820190508181036000830152611ea081611e64565b905091905056fea26469706673582212202b8a379a005943dc06a36e19fe63f9f5753dbd84e9851c274a3c3a0018be409c64736f6c63430008130033",
    "devdoc": {
        "author": "Allen",
        "details": "This implements the Chainlink VRF Version 2 and Automation",
        "kind": "dev",
        "methods": {
            "performUpkeep(bytes)": {
                "details": "Once `checkUpkeep` is returning `true`, this function is called and it kicks off a Chainlink VRF call to get a random winner."
            }
        },
        "title": "A sample Raffle Contract",
        "version": 1
    },
    "userdoc": {
        "kind": "user",
        "methods": {
            "acceptOwnership()": {
                "notice": "Allows an ownership transfer to be completed by the recipient."
            },
            "owner()": {
                "notice": "Get the current owner"
            },
            "setCoordinator(address)": {
                "notice": "Sets the VRF Coordinator addressThis method should only be callable by the coordinator or contract owner"
            },
            "transferOwnership(address)": {
                "notice": "Allows an owner to begin transferring ownership to a new address."
            }
        },
        "notice": "This contract is for creating a sample raffle contract",
        "version": 1
    },
    "storageLayout": {
        "storage": [
            {
                "astId": 97,
                "contract": "contracts/Raffle.sol:Raffle",
                "label": "s_owner",
                "offset": 0,
                "slot": "0",
                "type": "t_address"
            },
            {
                "astId": 99,
                "contract": "contracts/Raffle.sol:Raffle",
                "label": "s_pendingOwner",
                "offset": 0,
                "slot": "1",
                "type": "t_address"
            },
            {
                "astId": 2380,
                "contract": "contracts/Raffle.sol:Raffle",
                "label": "s_vrfCoordinator",
                "offset": 0,
                "slot": "2",
                "type": "t_contract(IVRFCoordinatorV2Plus)2529"
            },
            {
                "astId": 3549,
                "contract": "contracts/Raffle.sol:Raffle",
                "label": "s_lastTimestamp",
                "offset": 0,
                "slot": "3",
                "type": "t_uint256"
            },
            {
                "astId": 3551,
                "contract": "contracts/Raffle.sol:Raffle",
                "label": "s_recentWinner",
                "offset": 0,
                "slot": "4",
                "type": "t_address"
            },
            {
                "astId": 3554,
                "contract": "contracts/Raffle.sol:Raffle",
                "label": "s_players",
                "offset": 0,
                "slot": "5",
                "type": "t_array(t_address_payable)dyn_storage"
            },
            {
                "astId": 3557,
                "contract": "contracts/Raffle.sol:Raffle",
                "label": "s_raffleState",
                "offset": 0,
                "slot": "6",
                "type": "t_enum(RaffleState)3533"
            }
        ],
        "types": {
            "t_address": {
                "encoding": "inplace",
                "label": "address",
                "numberOfBytes": "20"
            },
            "t_address_payable": {
                "encoding": "inplace",
                "label": "address payable",
                "numberOfBytes": "20"
            },
            "t_array(t_address_payable)dyn_storage": {
                "base": "t_address_payable",
                "encoding": "dynamic_array",
                "label": "address payable[]",
                "numberOfBytes": "32"
            },
            "t_contract(IVRFCoordinatorV2Plus)2529": {
                "encoding": "inplace",
                "label": "contract IVRFCoordinatorV2Plus",
                "numberOfBytes": "20"
            },
            "t_enum(RaffleState)3533": {
                "encoding": "inplace",
                "label": "enum Raffle.RaffleState",
                "numberOfBytes": "1"
            },
            "t_uint256": {
                "encoding": "inplace",
                "label": "uint256",
                "numberOfBytes": "32"
            }
        }
    }
}