{
  "address": "0xecabA15D6c59d12c0fCc6e1872F40bF68e81d58E",
  "abi": [
    {
      "inputs": [
        {
          "internalType": "address",
          "name": "vrfCoordinator",
          "type": "address"
        },
        {
          "internalType": "uint256",
          "name": "subscriptionId",
          "type": "uint256"
        },
        {
          "internalType": "bytes32",
          "name": "gasLen",
          "type": "bytes32"
        },
        {
          "internalType": "uint32",
          "name": "callbackGasLimit",
          "type": "uint32"
        },
        {
          "internalType": "string[3]",
          "name": "dogeTokenUrls",
          "type": "string[3]"
        },
        {
          "internalType": "uint256",
          "name": "mintFee",
          "type": "uint256"
        }
      ],
      "stateMutability": "nonpayable",
      "type": "constructor"
    },
    {
      "inputs": [
        {
          "internalType": "address",
          "name": "sender",
          "type": "address"
        },
        {
          "internalType": "uint256",
          "name": "tokenId",
          "type": "uint256"
        },
        {
          "internalType": "address",
          "name": "owner",
          "type": "address"
        }
      ],
      "name": "ERC721IncorrectOwner",
      "type": "error"
    },
    {
      "inputs": [
        {
          "internalType": "address",
          "name": "operator",
          "type": "address"
        },
        {
          "internalType": "uint256",
          "name": "tokenId",
          "type": "uint256"
        }
      ],
      "name": "ERC721InsufficientApproval",
      "type": "error"
    },
    {
      "inputs": [
        {
          "internalType": "address",
          "name": "approver",
          "type": "address"
        }
      ],
      "name": "ERC721InvalidApprover",
      "type": "error"
    },
    {
      "inputs": [
        {
          "internalType": "address",
          "name": "operator",
          "type": "address"
        }
      ],
      "name": "ERC721InvalidOperator",
      "type": "error"
    },
    {
      "inputs": [
        {
          "internalType": "address",
          "name": "owner",
          "type": "address"
        }
      ],
      "name": "ERC721InvalidOwner",
      "type": "error"
    },
    {
      "inputs": [
        {
          "internalType": "address",
          "name": "receiver",
          "type": "address"
        }
      ],
      "name": "ERC721InvalidReceiver",
      "type": "error"
    },
    {
      "inputs": [
        {
          "internalType": "address",
          "name": "sender",
          "type": "address"
        }
      ],
      "name": "ERC721InvalidSender",
      "type": "error"
    },
    {
      "inputs": [
        {
          "internalType": "uint256",
          "name": "tokenId",
          "type": "uint256"
        }
      ],
      "name": "ERC721NonexistentToken",
      "type": "error"
    },
    {
      "inputs": [
        {
          "internalType": "address",
          "name": "have",
          "type": "address"
        },
        {
          "internalType": "address",
          "name": "want",
          "type": "address"
        }
      ],
      "name": "OnlyCoordinatorCanFulfill",
      "type": "error"
    },
    {
      "inputs": [
        {
          "internalType": "address",
          "name": "have",
          "type": "address"
        },
        {
          "internalType": "address",
          "name": "owner",
          "type": "address"
        },
        {
          "internalType": "address",
          "name": "coordinator",
          "type": "address"
        }
      ],
      "name": "OnlyOwnerOrCoordinator",
      "type": "error"
    },
    {
      "inputs": [],
      "name": "RandomIpfsNft_NeedMoreETHsent",
      "type": "error"
    },
    {
      "inputs": [],
      "name": "RandomIpfsNft__RangeOutOfBreeds",
      "type": "error"
    },
    {
      "inputs": [],
      "name": "RandomIpfsNft__TransferFailed",
      "type": "error"
    },
    {
      "inputs": [],
      "name": "ZeroAddress",
      "type": "error"
    },
    {
      "anonymous": false,
      "inputs": [
        {
          "indexed": true,
          "internalType": "address",
          "name": "owner",
          "type": "address"
        },
        {
          "indexed": true,
          "internalType": "address",
          "name": "approved",
          "type": "address"
        },
        {
          "indexed": true,
          "internalType": "uint256",
          "name": "tokenId",
          "type": "uint256"
        }
      ],
      "name": "Approval",
      "type": "event"
    },
    {
      "anonymous": false,
      "inputs": [
        {
          "indexed": true,
          "internalType": "address",
          "name": "owner",
          "type": "address"
        },
        {
          "indexed": true,
          "internalType": "address",
          "name": "operator",
          "type": "address"
        },
        {
          "indexed": false,
          "internalType": "bool",
          "name": "approved",
          "type": "bool"
        }
      ],
      "name": "ApprovalForAll",
      "type": "event"
    },
    {
      "anonymous": false,
      "inputs": [
        {
          "indexed": false,
          "internalType": "uint256",
          "name": "_fromTokenId",
          "type": "uint256"
        },
        {
          "indexed": false,
          "internalType": "uint256",
          "name": "_toTokenId",
          "type": "uint256"
        }
      ],
      "name": "BatchMetadataUpdate",
      "type": "event"
    },
    {
      "anonymous": false,
      "inputs": [
        {
          "indexed": false,
          "internalType": "address",
          "name": "vrfCoordinator",
          "type": "address"
        }
      ],
      "name": "CoordinatorSet",
      "type": "event"
    },
    {
      "anonymous": false,
      "inputs": [
        {
          "indexed": false,
          "internalType": "uint256",
          "name": "_tokenId",
          "type": "uint256"
        }
      ],
      "name": "MetadataUpdate",
      "type": "event"
    },
    {
      "anonymous": false,
      "inputs": [
        {
          "indexed": true,
          "internalType": "uint256",
          "name": "tokenId",
          "type": "uint256"
        },
        {
          "indexed": false,
          "internalType": "enum RandomIpfsNft.Breed",
          "name": "dogeBreed",
          "type": "uint8"
        },
        {
          "indexed": false,
          "internalType": "address",
          "name": "minter",
          "type": "address"
        }
      ],
      "name": "NftMinted",
      "type": "event"
    },
    {
      "anonymous": false,
      "inputs": [
        {
          "indexed": true,
          "internalType": "uint256",
          "name": "requestId",
          "type": "uint256"
        },
        {
          "indexed": true,
          "internalType": "address",
          "name": "requester",
          "type": "address"
        }
      ],
      "name": "NftRequested",
      "type": "event"
    },
    {
      "anonymous": false,
      "inputs": [
        {
          "indexed": true,
          "internalType": "address",
          "name": "from",
          "type": "address"
        },
        {
          "indexed": true,
          "internalType": "address",
          "name": "to",
          "type": "address"
        }
      ],
      "name": "OwnershipTransferRequested",
      "type": "event"
    },
    {
      "anonymous": false,
      "inputs": [
        {
          "indexed": true,
          "internalType": "address",
          "name": "from",
          "type": "address"
        },
        {
          "indexed": true,
          "internalType": "address",
          "name": "to",
          "type": "address"
        }
      ],
      "name": "OwnershipTransferred",
      "type": "event"
    },
    {
      "anonymous": false,
      "inputs": [
        {
          "indexed": true,
          "internalType": "address",
          "name": "from",
          "type": "address"
        },
        {
          "indexed": true,
          "internalType": "address",
          "name": "to",
          "type": "address"
        },
        {
          "indexed": true,
          "internalType": "uint256",
          "name": "tokenId",
          "type": "uint256"
        }
      ],
      "name": "Transfer",
      "type": "event"
    },
    {
      "inputs": [],
      "name": "acceptOwnership",
      "outputs": [],
      "stateMutability": "nonpayable",
      "type": "function"
    },
    {
      "inputs": [
        {
          "internalType": "address",
          "name": "to",
          "type": "address"
        },
        {
          "internalType": "uint256",
          "name": "tokenId",
          "type": "uint256"
        }
      ],
      "name": "approve",
      "outputs": [],
      "stateMutability": "nonpayable",
      "type": "function"
    },
    {
      "inputs": [
        {
          "internalType": "address",
          "name": "owner",
          "type": "address"
        }
      ],
      "name": "balanceOf",
      "outputs": [
        {
          "internalType": "uint256",
          "name": "",
          "type": "uint256"
        }
      ],
      "stateMutability": "view",
      "type": "function"
    },
    {
      "inputs": [
        {
          "internalType": "uint256",
          "name": "tokenId",
          "type": "uint256"
        }
      ],
      "name": "getApproved",
      "outputs": [
        {
          "internalType": "address",
          "name": "",
          "type": "address"
        }
      ],
      "stateMutability": "view",
      "type": "function"
    },
    {
      "inputs": [
        {
          "internalType": "uint256",
          "name": "moddedRng",
          "type": "uint256"
        }
      ],
      "name": "getBreedFromModdedRng",
      "outputs": [
        {
          "internalType": "enum RandomIpfsNft.Breed",
          "name": "",
          "type": "uint8"
        }
      ],
      "stateMutability": "pure",
      "type": "function"
    },
    {
      "inputs": [],
      "name": "getChanceArray",
      "outputs": [
        {
          "internalType": "uint256[3]",
          "name": "",
          "type": "uint256[3]"
        }
      ],
      "stateMutability": "pure",
      "type": "function"
    },
    {
      "inputs": [
        {
          "internalType": "uint256",
          "name": "index",
          "type": "uint256"
        }
      ],
      "name": "getDogTokenUrl",
      "outputs": [
        {
          "internalType": "string",
          "name": "",
          "type": "string"
        }
      ],
      "stateMutability": "view",
      "type": "function"
    },
    {
      "inputs": [],
      "name": "getMintFee",
      "outputs": [
        {
          "internalType": "uint256",
          "name": "",
          "type": "uint256"
        }
      ],
      "stateMutability": "view",
      "type": "function"
    },
    {
      "inputs": [],
      "name": "getTokenCounter",
      "outputs": [
        {
          "internalType": "uint256",
          "name": "",
          "type": "uint256"
        }
      ],
      "stateMutability": "view",
      "type": "function"
    },
    {
      "inputs": [
        {
          "internalType": "address",
          "name": "owner",
          "type": "address"
        },
        {
          "internalType": "address",
          "name": "operator",
          "type": "address"
        }
      ],
      "name": "isApprovedForAll",
      "outputs": [
        {
          "internalType": "bool",
          "name": "",
          "type": "bool"
        }
      ],
      "stateMutability": "view",
      "type": "function"
    },
    {
      "inputs": [],
      "name": "name",
      "outputs": [
        {
          "internalType": "string",
          "name": "",
          "type": "string"
        }
      ],
      "stateMutability": "view",
      "type": "function"
    },
    {
      "inputs": [],
      "name": "owner",
      "outputs": [
        {
          "internalType": "address",
          "name": "",
          "type": "address"
        }
      ],
      "stateMutability": "view",
      "type": "function"
    },
    {
      "inputs": [
        {
          "internalType": "uint256",
          "name": "tokenId",
          "type": "uint256"
        }
      ],
      "name": "ownerOf",
      "outputs": [
        {
          "internalType": "address",
          "name": "",
          "type": "address"
        }
      ],
      "stateMutability": "view",
      "type": "function"
    },
    {
      "inputs": [
        {
          "internalType": "uint256",
          "name": "requestId",
          "type": "uint256"
        },
        {
          "internalType": "uint256[]",
          "name": "randomWords",
          "type": "uint256[]"
        }
      ],
      "name": "rawFulfillRandomWords",
      "outputs": [],
      "stateMutability": "nonpayable",
      "type": "function"
    },
    {
      "inputs": [],
      "name": "requestNft",
      "outputs": [
        {
          "internalType": "uint256",
          "name": "requestId",
          "type": "uint256"
        }
      ],
      "stateMutability": "payable",
      "type": "function"
    },
    {
      "inputs": [
        {
          "internalType": "uint256",
          "name": "",
          "type": "uint256"
        }
      ],
      "name": "s_requestIdToSender",
      "outputs": [
        {
          "internalType": "address",
          "name": "",
          "type": "address"
        }
      ],
      "stateMutability": "view",
      "type": "function"
    },
    {
      "inputs": [],
      "name": "s_tokenCounter",
      "outputs": [
        {
          "internalType": "uint256",
          "name": "",
          "type": "uint256"
        }
      ],
      "stateMutability": "view",
      "type": "function"
    },
    {
      "inputs": [],
      "name": "s_vrfCoordinator",
      "outputs": [
        {
          "internalType": "contract IVRFCoordinatorV2Plus",
          "name": "",
          "type": "address"
        }
      ],
      "stateMutability": "view",
      "type": "function"
    },
    {
      "inputs": [
        {
          "internalType": "address",
          "name": "from",
          "type": "address"
        },
        {
          "internalType": "address",
          "name": "to",
          "type": "address"
        },
        {
          "internalType": "uint256",
          "name": "tokenId",
          "type": "uint256"
        }
      ],
      "name": "safeTransferFrom",
      "outputs": [],
      "stateMutability": "nonpayable",
      "type": "function"
    },
    {
      "inputs": [
        {
          "internalType": "address",
          "name": "from",
          "type": "address"
        },
        {
          "internalType": "address",
          "name": "to",
          "type": "address"
        },
        {
          "internalType": "uint256",
          "name": "tokenId",
          "type": "uint256"
        },
        {
          "internalType": "bytes",
          "name": "data",
          "type": "bytes"
        }
      ],
      "name": "safeTransferFrom",
      "outputs": [],
      "stateMutability": "nonpayable",
      "type": "function"
    },
    {
      "inputs": [
        {
          "internalType": "address",
          "name": "operator",
          "type": "address"
        },
        {
          "internalType": "bool",
          "name": "approved",
          "type": "bool"
        }
      ],
      "name": "setApprovalForAll",
      "outputs": [],
      "stateMutability": "nonpayable",
      "type": "function"
    },
    {
      "inputs": [
        {
          "internalType": "address",
          "name": "_vrfCoordinator",
          "type": "address"
        }
      ],
      "name": "setCoordinator",
      "outputs": [],
      "stateMutability": "nonpayable",
      "type": "function"
    },
    {
      "inputs": [
        {
          "internalType": "bytes4",
          "name": "interfaceId",
          "type": "bytes4"
        }
      ],
      "name": "supportsInterface",
      "outputs": [
        {
          "internalType": "bool",
          "name": "",
          "type": "bool"
        }
      ],
      "stateMutability": "view",
      "type": "function"
    },
    {
      "inputs": [],
      "name": "symbol",
      "outputs": [
        {
          "internalType": "string",
          "name": "",
          "type": "string"
        }
      ],
      "stateMutability": "view",
      "type": "function"
    },
    {
      "inputs": [
        {
          "internalType": "uint256",
          "name": "tokenId",
          "type": "uint256"
        }
      ],
      "name": "tokenURI",
      "outputs": [
        {
          "internalType": "string",
          "name": "",
          "type": "string"
        }
      ],
      "stateMutability": "view",
      "type": "function"
    },
    {
      "inputs": [
        {
          "internalType": "address",
          "name": "from",
          "type": "address"
        },
        {
          "internalType": "address",
          "name": "to",
          "type": "address"
        },
        {
          "internalType": "uint256",
          "name": "tokenId",
          "type": "uint256"
        }
      ],
      "name": "transferFrom",
      "outputs": [],
      "stateMutability": "nonpayable",
      "type": "function"
    },
    {
      "inputs": [
        {
          "internalType": "address",
          "name": "to",
          "type": "address"
        }
      ],
      "name": "transferOwnership",
      "outputs": [],
      "stateMutability": "nonpayable",
      "type": "function"
    },
    {
      "inputs": [],
      "name": "withdraw",
      "outputs": [],
      "stateMutability": "nonpayable",
      "type": "function"
    }
  ],
  "transactionHash": "0x40f56757fdda1a0e04e755ce710f8ab9b7af1180559bde935f38b7e8ef40b3c9",
  "args": [
    "0x9DdfaCa8183c41ad55329BdeeD9F6A8d53168B1B",
    "58719440745824554760683641117229548609835354899292715516135670765460973904688",
    "0x787d74caea10b2b357790d5b5247c2f63d1d91572a9846f780606e4d953677ae",
    "1000000",
    [
      "https://ipfs.io/ipfs/bafkreiaafa67hlm5dgdoot7ffxsteywzxdcvqghj3732hqkf7pclcly2ce",
      "https://ipfs.io/ipfs/bafkreie3lnin2tmfkna4lvkpndoornz7ut33u3uiqxc4xjvrux3uocmrfm",
      "https://ipfs.io/ipfs/bafkreib36x37qscz2y6hpq3vconcy7mxiuffrwv332oda5c3ucm7c2fpd4"
    ],
    "10000000000000000"
  ],
  "numDeployments": 1,
  "solcInputHash": "f4247670c9c82acd4c039b12f3649129",
  "bytecode": "0x610120604052600163ffffffff1660e09063ffffffff1681525034801561002557600080fd5b5060405161481e38038061481e8339818101604052810190610047919061081a565b85338060006040518060400160405280600f81526020017f52616e646f6d2049504653204e465400000000000000000000000000000000008152506040518060400160405280600381526020017f444f47000000000000000000000000000000000000000000000000000000000081525081600090816100c79190610ada565b5080600190816100d79190610ada565b505050600073ffffffffffffffffffffffffffffffffffffffff168273ffffffffffffffffffffffffffffffffffffffff1603610149576040517f08c379a000000000000000000000000000000000000000000000000000000000815260040161014090610c09565b60405180910390fd5b81600760006101000a81548173ffffffffffffffffffffffffffffffffffffffff021916908373ffffffffffffffffffffffffffffffffffffffff160217905550600073ffffffffffffffffffffffffffffffffffffffff168173ffffffffffffffffffffffffffffffffffffffff16146101ce576101cd816102c360201b60201c565b5b505050600073ffffffffffffffffffffffffffffffffffffffff168173ffffffffffffffffffffffffffffffffffffffff1603610237576040517fd92e233d00000000000000000000000000000000000000000000000000000000815260040160405180910390fd5b80600960006101000a81548173ffffffffffffffffffffffffffffffffffffffff021916908373ffffffffffffffffffffffffffffffffffffffff1602179055505084608081815250508360a081815250508263ffffffff1660c08163ffffffff168152505081600c9060036102ae9291906103f1565b50806101008181525050505050505050610c95565b3373ffffffffffffffffffffffffffffffffffffffff168173ffffffffffffffffffffffffffffffffffffffff1603610331576040517f08c379a000000000000000000000000000000000000000000000000000000000815260040161032890610c75565b60405180910390fd5b80600860006101000a81548173ffffffffffffffffffffffffffffffffffffffff021916908373ffffffffffffffffffffffffffffffffffffffff1602179055508073ffffffffffffffffffffffffffffffffffffffff16600760009054906101000a900473ffffffffffffffffffffffffffffffffffffffff1673ffffffffffffffffffffffffffffffffffffffff167fed8889f560326eb138920d842192f0eb3dd22b4f139c87a2c57538e05bae127860405160405180910390a350565b828054828255906000526020600020908101928215610439579160200282015b828111156104385782518290816104289190610ada565b5091602001919060010190610411565b5b509050610446919061044a565b5090565b5b8082111561046a5760008181610461919061046e565b5060010161044b565b5090565b50805461047a906108fd565b6000825580601f1061048c57506104ab565b601f0160209004906000526020600020908101906104aa91906104ae565b5b50565b5b808211156104c75760008160009055506001016104af565b5090565b6000604051905090565b600080fd5b600080fd5b600073ffffffffffffffffffffffffffffffffffffffff82169050919050565b600061050a826104df565b9050919050565b61051a816104ff565b811461052557600080fd5b50565b60008151905061053781610511565b92915050565b6000819050919050565b6105508161053d565b811461055b57600080fd5b50565b60008151905061056d81610547565b92915050565b6000819050919050565b61058681610573565b811461059157600080fd5b50565b6000815190506105a38161057d565b92915050565b600063ffffffff82169050919050565b6105c2816105a9565b81146105cd57600080fd5b50565b6000815190506105df816105b9565b92915050565b600080fd5b6000601f19601f8301169050919050565b7f4e487b7100000000000000000000000000000000000000000000000000000000600052604160045260246000fd5b610633826105ea565b810181811067ffffffffffffffff82111715610652576106516105fb565b5b80604052505050565b60006106656104cb565b9050610671828261062a565b919050565b600067ffffffffffffffff821115610691576106906105fb565b5b602082029050919050565b600080fd5b600080fd5b600067ffffffffffffffff8211156106c1576106c06105fb565b5b6106ca826105ea565b9050602081019050919050565b60005b838110156106f55780820151818401526020810190506106da565b60008484015250505050565b600061071461070f846106a6565b61065b565b9050828152602081018484840111156107305761072f6106a1565b5b61073b8482856106d7565b509392505050565b600082601f830112610758576107576105e5565b5b8151610768848260208601610701565b91505092915050565b600061078461077f84610676565b61065b565b9050806020840283018581111561079e5761079d61069c565b5b835b818110156107e557805167ffffffffffffffff8111156107c3576107c26105e5565b5b8086016107d08982610743565b855260208501945050506020810190506107a0565b5050509392505050565b600082601f830112610804576108036105e5565b5b6003610811848285610771565b91505092915050565b60008060008060008060c08789031215610837576108366104d5565b5b600061084589828a01610528565b965050602061085689828a0161055e565b955050604061086789828a01610594565b945050606061087889828a016105d0565b935050608087015167ffffffffffffffff811115610899576108986104da565b5b6108a589828a016107ef565b92505060a06108b689828a0161055e565b9150509295509295509295565b600081519050919050565b7f4e487b7100000000000000000000000000000000000000000000000000000000600052602260045260246000fd5b6000600282049050600182168061091557607f821691505b602082108103610928576109276108ce565b5b50919050565b60008190508160005260206000209050919050565b60006020601f8301049050919050565b600082821b905092915050565b6000600883026109907fffffffffffffffffffffffffffffffffffffffffffffffffffffffffffffffff82610953565b61099a8683610953565b95508019841693508086168417925050509392505050565b6000819050919050565b60006109d76109d26109cd8461053d565b6109b2565b61053d565b9050919050565b6000819050919050565b6109f1836109bc565b610a056109fd826109de565b848454610960565b825550505050565b600090565b610a1a610a0d565b610a258184846109e8565b505050565b5b81811015610a4957610a3e600082610a12565b600181019050610a2b565b5050565b601f821115610a8e57610a5f8161092e565b610a6884610943565b81016020851015610a77578190505b610a8b610a8385610943565b830182610a2a565b50505b505050565b600082821c905092915050565b6000610ab160001984600802610a93565b1980831691505092915050565b6000610aca8383610aa0565b9150826002028217905092915050565b610ae3826108c3565b67ffffffffffffffff811115610afc57610afb6105fb565b5b610b0682546108fd565b610b11828285610a4d565b600060209050601f831160018114610b445760008415610b32578287015190505b610b3c8582610abe565b865550610ba4565b601f198416610b528661092e565b60005b82811015610b7a57848901518255600182019150602085019450602081019050610b55565b86831015610b975784890151610b93601f891682610aa0565b8355505b6001600288020188555050505b505050505050565b600082825260208201905092915050565b7f43616e6e6f7420736574206f776e657220746f207a65726f0000000000000000600082015250565b6000610bf3601883610bac565b9150610bfe82610bbd565b602082019050919050565b60006020820190508181036000830152610c2281610be6565b9050919050565b7f43616e6e6f74207472616e7366657220746f2073656c66000000000000000000600082015250565b6000610c5f601783610bac565b9150610c6a82610c29565b602082019050919050565b60006020820190508181036000830152610c8e81610c52565b9050919050565b60805160a05160c05160e05161010051613b3e610ce060003960008181610de001526111f001526000611316015260006112ea01526000611293015260006112b90152613b3e6000f3fe6080604052600436106101b75760003560e01c806379ba5097116100ec578063a36f573b1161008a578063b88d4fde11610064578063b88d4fde14610601578063c87b56dd1461062a578063e985e9c514610667578063f2fde38b146106a4576101b7565b8063a36f573b14610569578063a51cccf3146105a6578063aa152491146105e3576101b7565b80638ea98117116100c65780638ea98117146104c157806395d89b41146104ea5780639eccacf614610515578063a22cb46514610540576101b7565b806379ba5097146104545780637a5caab31461046b5780638da5cb5b14610496576101b7565b80633ccfd60b116101595780635dacf5f4116101335780635dacf5f4146103845780636352211e146103af5780636e02007d146103ec57806370a0823114610417576101b7565b80633ccfd60b1461030757806342842e0e1461031e57806353b128e314610347576101b7565b8063095ea7b311610195578063095ea7b3146102615780630b21a83b1461028a5780631fe543e3146102b557806323b872dd146102de576101b7565b806301ffc9a7146101bc57806306fdde03146101f9578063081812fc14610224575b600080fd5b3480156101c857600080fd5b506101e360048036038101906101de91906129da565b6106cd565b6040516101f09190612a22565b60405180910390f35b34801561020557600080fd5b5061020e61072e565b60405161021b9190612acd565b60405180910390f35b34801561023057600080fd5b5061024b60048036038101906102469190612b25565b6107c0565b6040516102589190612b93565b60405180910390f35b34801561026d57600080fd5b5061028860048036038101906102839190612bda565b6107dc565b005b34801561029657600080fd5b5061029f6107f2565b6040516102ac9190612c29565b60405180910390f35b3480156102c157600080fd5b506102dc60048036038101906102d79190612ca9565b6107f8565b005b3480156102ea57600080fd5b5061030560048036038101906103009190612d09565b6108be565b005b34801561031357600080fd5b5061031c6109c0565b005b34801561032a57600080fd5b5061034560048036038101906103409190612d09565b610a74565b005b34801561035357600080fd5b5061036e60048036038101906103699190612b25565b610a94565b60405161037b9190612acd565b60405180910390f35b34801561039057600080fd5b50610399610b44565b6040516103a69190612e07565b60405180910390f35b3480156103bb57600080fd5b506103d660048036038101906103d19190612b25565b610b6f565b6040516103e39190612b93565b60405180910390f35b3480156103f857600080fd5b50610401610b81565b60405161040e9190612c29565b60405180910390f35b34801561042357600080fd5b5061043e60048036038101906104399190612e22565b610b8b565b60405161044b9190612c29565b60405180910390f35b34801561046057600080fd5b50610469610c45565b005b34801561047757600080fd5b50610480610ddc565b60405161048d9190612c29565b60405180910390f35b3480156104a257600080fd5b506104ab610e04565b6040516104b89190612b93565b60405180910390f35b3480156104cd57600080fd5b506104e860048036038101906104e39190612e22565b610e2e565b005b3480156104f657600080fd5b506104ff61100f565b60405161050c9190612acd565b60405180910390f35b34801561052157600080fd5b5061052a6110a1565b6040516105379190612eae565b60405180910390f35b34801561054c57600080fd5b5061056760048036038101906105629190612ef5565b6110c7565b005b34801561057557600080fd5b50610590600480360381019061058b9190612b25565b6110dd565b60405161059d9190612b93565b60405180910390f35b3480156105b257600080fd5b506105cd60048036038101906105c89190612b25565b611110565b6040516105da9190612fac565b60405180910390f35b6105eb6111ec565b6040516105f89190612c29565b60405180910390f35b34801561060d57600080fd5b50610628600480360381019061062391906130f7565b611457565b005b34801561063657600080fd5b50610651600480360381019061064c9190612b25565b61147c565b60405161065e9190612acd565b60405180910390f35b34801561067357600080fd5b5061068e6004803603810190610689919061317a565b61158f565b60405161069b9190612a22565b60405180910390f35b3480156106b057600080fd5b506106cb60048036038101906106c69190612e22565b611623565b005b6000634906490660e01b7bffffffffffffffffffffffffffffffffffffffffffffffffffffffff1916827bffffffffffffffffffffffffffffffffffffffffffffffffffffffff19161480610727575061072682611637565b5b9050919050565b60606000805461073d906131e9565b80601f0160208091040260200160405190810160405280929190818152602001828054610769906131e9565b80156107b65780601f1061078b576101008083540402835291602001916107b6565b820191906000526020600020905b81548152906001019060200180831161079957829003601f168201915b5050505050905090565b60006107cb82611719565b506107d5826117a1565b9050919050565b6107ee82826107e96117de565b6117e6565b5050565b600b5481565b600960009054906101000a900473ffffffffffffffffffffffffffffffffffffffff1673ffffffffffffffffffffffffffffffffffffffff163373ffffffffffffffffffffffffffffffffffffffff16146108ae5733600960009054906101000a900473ffffffffffffffffffffffffffffffffffffffff166040517f1cf993f40000000000000000000000000000000000000000000000000000000081526004016108a592919061321a565b60405180910390fd5b6108b98383836117f8565b505050565b600073ffffffffffffffffffffffffffffffffffffffff168273ffffffffffffffffffffffffffffffffffffffff16036109305760006040517f64a0ae920000000000000000000000000000000000000000000000000000000081526004016109279190612b93565b60405180910390fd5b6000610944838361093f6117de565b611991565b90508373ffffffffffffffffffffffffffffffffffffffff168173ffffffffffffffffffffffffffffffffffffffff16146109ba578382826040517f64283d7b0000000000000000000000000000000000000000000000000000000081526004016109b193929190613243565b60405180910390fd5b50505050565b6109c8611bab565b600047905060003373ffffffffffffffffffffffffffffffffffffffff16826040516109f3906132ab565b60006040518083038185875af1925050503d8060008114610a30576040519150601f19603f3d011682016040523d82523d6000602084013e610a35565b606091505b5050905080610a70576040517fca7e25b700000000000000000000000000000000000000000000000000000000815260040160405180910390fd5b5050565b610a8f83838360405180602001604052806000815250611457565b505050565b6060600c8281548110610aaa57610aa96132c0565b5b906000526020600020018054610abf906131e9565b80601f0160208091040260200160405190810160405280929190818152602001828054610aeb906131e9565b8015610b385780601f10610b0d57610100808354040283529160200191610b38565b820191906000526020600020905b815481529060010190602001808311610b1b57829003601f168201915b50505050509050919050565b610b4c61294c565b6040518060600160405280600a8152602001601e81526020016064815250905090565b6000610b7a82611719565b9050919050565b6000600b54905090565b60008073ffffffffffffffffffffffffffffffffffffffff168273ffffffffffffffffffffffffffffffffffffffff1603610bfe5760006040517f89c62b64000000000000000000000000000000000000000000000000000000008152600401610bf59190612b93565b60405180910390fd5b600360008373ffffffffffffffffffffffffffffffffffffffff1673ffffffffffffffffffffffffffffffffffffffff168152602001908152602001600020549050919050565b600860009054906101000a900473ffffffffffffffffffffffffffffffffffffffff1673ffffffffffffffffffffffffffffffffffffffff163373ffffffffffffffffffffffffffffffffffffffff1614610cd5576040517f08c379a0000000000000000000000000000000000000000000000000000000008152600401610ccc9061333b565b60405180910390fd5b6000600760009054906101000a900473ffffffffffffffffffffffffffffffffffffffff16905033600760006101000a81548173ffffffffffffffffffffffffffffffffffffffff021916908373ffffffffffffffffffffffffffffffffffffffff1602179055506000600860006101000a81548173ffffffffffffffffffffffffffffffffffffffff021916908373ffffffffffffffffffffffffffffffffffffffff1602179055503373ffffffffffffffffffffffffffffffffffffffff168173ffffffffffffffffffffffffffffffffffffffff167f8be0079c531659141344cd1fd0a4f28419497f9722a3daafe3b4186f6b6457e060405160405180910390a350565b60007f0000000000000000000000000000000000000000000000000000000000000000905090565b6000600760009054906101000a900473ffffffffffffffffffffffffffffffffffffffff16905090565b610e36610e04565b73ffffffffffffffffffffffffffffffffffffffff163373ffffffffffffffffffffffffffffffffffffffff1614158015610ebf5750600960009054906101000a900473ffffffffffffffffffffffffffffffffffffffff1673ffffffffffffffffffffffffffffffffffffffff163373ffffffffffffffffffffffffffffffffffffffff1614155b15610f2e5733610ecd610e04565b600960009054906101000a900473ffffffffffffffffffffffffffffffffffffffff166040517f061db9c1000000000000000000000000000000000000000000000000000000008152600401610f259392919061335b565b60405180910390fd5b600073ffffffffffffffffffffffffffffffffffffffff168173ffffffffffffffffffffffffffffffffffffffff1603610f94576040517fd92e233d00000000000000000000000000000000000000000000000000000000815260040160405180910390fd5b80600960006101000a81548173ffffffffffffffffffffffffffffffffffffffff021916908373ffffffffffffffffffffffffffffffffffffffff1602179055507fd1a6a14209a385a964d036e404cb5cfb71f4000cdb03c9366292430787261be6816040516110049190612b93565b60405180910390a150565b60606001805461101e906131e9565b80601f016020809104026020016040519081016040528092919081815260200182805461104a906131e9565b80156110975780601f1061106c57610100808354040283529160200191611097565b820191906000526020600020905b81548152906001019060200180831161107a57829003601f168201915b5050505050905090565b600960009054906101000a900473ffffffffffffffffffffffffffffffffffffffff1681565b6110d96110d26117de565b8383611c3d565b5050565b600a6020528060005260406000206000915054906101000a900473ffffffffffffffffffffffffffffffffffffffff1681565b600080600090506000611121610b44565b905060005b60038110156111b457828510158015611160575081816003811061114d5761114c6132c0565b5b60200201518361115d91906133c1565b85105b156111825780600281111561117857611177612f35565b5b93505050506111e7565b818160038110611195576111946132c0565b5b6020020151836111a591906133c1565b92508080600101915050611126565b506040517f14b4503d00000000000000000000000000000000000000000000000000000000815260040160405180910390fd5b919050565b60007f0000000000000000000000000000000000000000000000000000000000000000341015611248576040517f142d849100000000000000000000000000000000000000000000000000000000815260040160405180910390fd5b600960009054906101000a900473ffffffffffffffffffffffffffffffffffffffff1673ffffffffffffffffffffffffffffffffffffffff16639b1c385e6040518060c001604052807f000000000000000000000000000000000000000000000000000000000000000081526020017f00000000000000000000000000000000000000000000000000000000000000008152602001600361ffff1681526020017f000000000000000000000000000000000000000000000000000000000000000063ffffffff1681526020017f000000000000000000000000000000000000000000000000000000000000000063ffffffff16815260200161135a604051806020016040528060001515815250611dac565b8152506040518263ffffffff1660e01b81526004016113799190613528565b6020604051808303816000875af1158015611398573d6000803e3d6000fd5b505050506040513d601f19601f820116820180604052508101906113bc919061355f565b905033600a600083815260200190815260200160002060006101000a81548173ffffffffffffffffffffffffffffffffffffffff021916908373ffffffffffffffffffffffffffffffffffffffff1602179055503373ffffffffffffffffffffffffffffffffffffffff16817ff873236e6cc0ecc5be1a9a35c95ee5b8d1ac4cc7bfef0cc5060391d6cc98e26b60405160405180910390a390565b6114628484846108be565b61147661146d6117de565b85858585611e44565b50505050565b606061148782611719565b5060006006600084815260200190815260200160002080546114a8906131e9565b80601f01602080910402602001604051908101604052809291908181526020018280546114d4906131e9565b80156115215780601f106114f657610100808354040283529160200191611521565b820191906000526020600020905b81548152906001019060200180831161150457829003601f168201915b505050505090506000611532611ff5565b9050600081510361154757819250505061158a565b60008251111561157c5780826040516020016115649291906135c8565b6040516020818303038152906040529250505061158a565b6115858461200c565b925050505b919050565b6000600560008473ffffffffffffffffffffffffffffffffffffffff1673ffffffffffffffffffffffffffffffffffffffff16815260200190815260200160002060008373ffffffffffffffffffffffffffffffffffffffff1673ffffffffffffffffffffffffffffffffffffffff16815260200190815260200160002060009054906101000a900460ff16905092915050565b61162b611bab565b61163481612075565b50565b60007f80ac58cd000000000000000000000000000000000000000000000000000000007bffffffffffffffffffffffffffffffffffffffffffffffffffffffff1916827bffffffffffffffffffffffffffffffffffffffffffffffffffffffff1916148061170257507f5b5e139f000000000000000000000000000000000000000000000000000000007bffffffffffffffffffffffffffffffffffffffffffffffffffffffff1916827bffffffffffffffffffffffffffffffffffffffffffffffffffffffff1916145b806117125750611711826121a3565b5b9050919050565b6000806117258361220d565b9050600073ffffffffffffffffffffffffffffffffffffffff168173ffffffffffffffffffffffffffffffffffffffff160361179857826040517f7e27328900000000000000000000000000000000000000000000000000000000815260040161178f9190612c29565b60405180910390fd5b80915050919050565b60006004600083815260200190815260200160002060009054906101000a900473ffffffffffffffffffffffffffffffffffffffff169050919050565b600033905090565b6117f3838383600161224a565b505050565b6000600a600085815260200190815260200160002060009054906101000a900473ffffffffffffffffffffffffffffffffffffffff1690506000600b549050600060648585600081811061184f5761184e6132c0565b5b90506020020135611860919061361b565b9050600061186d82611110565b905060018361187c91906133c1565b600b8190555061188c848461240f565b61194e83600c8360028111156118a5576118a4612f35565b5b815481106118b6576118b56132c0565b5b9060005260206000200180546118cb906131e9565b80601f01602080910402602001604051908101604052809291908181526020018280546118f7906131e9565b80156119445780601f1061191957610100808354040283529160200191611944565b820191906000526020600020905b81548152906001019060200180831161192757829003601f168201915b505050505061242d565b827f826d84de86b9d47351ad75c90b9a8b7211e761e448ccd64623fc26341dd0b8dc828660405161198092919061364c565b60405180910390a250505050505050565b60008061199d8461220d565b9050600073ffffffffffffffffffffffffffffffffffffffff168373ffffffffffffffffffffffffffffffffffffffff16146119df576119de818486612489565b5b600073ffffffffffffffffffffffffffffffffffffffff168173ffffffffffffffffffffffffffffffffffffffff1614611a7057611a2160008560008061224a565b6001600360008373ffffffffffffffffffffffffffffffffffffffff1673ffffffffffffffffffffffffffffffffffffffff168152602001908152602001600020600082825403925050819055505b600073ffffffffffffffffffffffffffffffffffffffff168573ffffffffffffffffffffffffffffffffffffffff1614611af3576001600360008773ffffffffffffffffffffffffffffffffffffffff1673ffffffffffffffffffffffffffffffffffffffff168152602001908152602001600020600082825401925050819055505b846002600086815260200190815260200160002060006101000a81548173ffffffffffffffffffffffffffffffffffffffff021916908373ffffffffffffffffffffffffffffffffffffffff160217905550838573ffffffffffffffffffffffffffffffffffffffff168273ffffffffffffffffffffffffffffffffffffffff167fddf252ad1be2c89b69c2b068fc378daa952ba7f163c4a11628f55a4df523b3ef60405160405180910390a4809150509392505050565b600760009054906101000a900473ffffffffffffffffffffffffffffffffffffffff1673ffffffffffffffffffffffffffffffffffffffff163373ffffffffffffffffffffffffffffffffffffffff1614611c3b576040517f08c379a0000000000000000000000000000000000000000000000000000000008152600401611c32906136c1565b60405180910390fd5b565b600073ffffffffffffffffffffffffffffffffffffffff168273ffffffffffffffffffffffffffffffffffffffff1603611cae57816040517f5b08ba18000000000000000000000000000000000000000000000000000000008152600401611ca59190612b93565b60405180910390fd5b80600560008573ffffffffffffffffffffffffffffffffffffffff1673ffffffffffffffffffffffffffffffffffffffff16815260200190815260200160002060008473ffffffffffffffffffffffffffffffffffffffff1673ffffffffffffffffffffffffffffffffffffffff16815260200190815260200160002060006101000a81548160ff0219169083151502179055508173ffffffffffffffffffffffffffffffffffffffff168373ffffffffffffffffffffffffffffffffffffffff167f17307eab39ab6107e8899845ad3d59bd9653f200f220920489ca2b5937696c3183604051611d9f9190612a22565b60405180910390a3505050565b60607f92fd13387c7fe7befbc38d303d6468778fb9731bc4583f17d92989c6fcfdeaaa82604051602401611de0919061370c565b604051602081830303815290604052907bffffffffffffffffffffffffffffffffffffffffffffffffffffffff19166020820180517bffffffffffffffffffffffffffffffffffffffffffffffffffffffff83818316178352505050509050919050565b60008373ffffffffffffffffffffffffffffffffffffffff163b1115611fee578273ffffffffffffffffffffffffffffffffffffffff1663150b7a02868685856040518563ffffffff1660e01b8152600401611ea39493929190613771565b6020604051808303816000875af1925050508015611edf57506040513d601f19601f82011682018060405250810190611edc91906137d2565b60015b611f63573d8060008114611f0f576040519150601f19603f3d011682016040523d82523d6000602084013e611f14565b606091505b506000815103611f5b57836040517f64a0ae92000000000000000000000000000000000000000000000000000000008152600401611f529190612b93565b60405180910390fd5b805181602001fd5b63150b7a0260e01b7bffffffffffffffffffffffffffffffffffffffffffffffffffffffff1916817bffffffffffffffffffffffffffffffffffffffffffffffffffffffff191614611fec57836040517f64a0ae92000000000000000000000000000000000000000000000000000000008152600401611fe39190612b93565b60405180910390fd5b505b5050505050565b606060405180602001604052806000815250905090565b606061201782611719565b506000612022611ff5565b90506000815111612042576040518060200160405280600081525061206d565b8061204c8461254d565b60405160200161205d9291906135c8565b6040516020818303038152906040525b915050919050565b3373ffffffffffffffffffffffffffffffffffffffff168173ffffffffffffffffffffffffffffffffffffffff16036120e3576040517f08c379a00000000000000000000000000000000000000000000000000000000081526004016120da9061384b565b60405180910390fd5b80600860006101000a81548173ffffffffffffffffffffffffffffffffffffffff021916908373ffffffffffffffffffffffffffffffffffffffff1602179055508073ffffffffffffffffffffffffffffffffffffffff16600760009054906101000a900473ffffffffffffffffffffffffffffffffffffffff1673ffffffffffffffffffffffffffffffffffffffff167fed8889f560326eb138920d842192f0eb3dd22b4f139c87a2c57538e05bae127860405160405180910390a350565b60007f01ffc9a7000000000000000000000000000000000000000000000000000000007bffffffffffffffffffffffffffffffffffffffffffffffffffffffff1916827bffffffffffffffffffffffffffffffffffffffffffffffffffffffff1916149050919050565b60006002600083815260200190815260200160002060009054906101000a900473ffffffffffffffffffffffffffffffffffffffff169050919050565b80806122835750600073ffffffffffffffffffffffffffffffffffffffff168273ffffffffffffffffffffffffffffffffffffffff1614155b156123b757600061229384611719565b9050600073ffffffffffffffffffffffffffffffffffffffff168373ffffffffffffffffffffffffffffffffffffffff16141580156122fe57508273ffffffffffffffffffffffffffffffffffffffff168173ffffffffffffffffffffffffffffffffffffffff1614155b8015612311575061230f818461158f565b155b1561235357826040517fa9fbf51f00000000000000000000000000000000000000000000000000000000815260040161234a9190612b93565b60405180910390fd5b81156123b557838573ffffffffffffffffffffffffffffffffffffffff168273ffffffffffffffffffffffffffffffffffffffff167f8c5be1e5ebec7d5bd14f71427d1e84f3dd0314c0f7b2291e5b200ac8c7c3b92560405160405180910390a45b505b836004600085815260200190815260200160002060006101000a81548173ffffffffffffffffffffffffffffffffffffffff021916908373ffffffffffffffffffffffffffffffffffffffff16021790555050505050565b61242982826040518060200160405280600081525061261b565b5050565b8060066000848152602001908152602001600020908161244d9190613a0d565b507ff8e1a15aba9398e019f0b49df1a4fde98ee17ae345cb5f6b5e2c27f5033e8ce78260405161247d9190612c29565b60405180910390a15050565b61249483838361263f565b61254857600073ffffffffffffffffffffffffffffffffffffffff168373ffffffffffffffffffffffffffffffffffffffff160361250957806040517f7e2732890000000000000000000000000000000000000000000000000000000081526004016125009190612c29565b60405180910390fd5b81816040517f177e802f00000000000000000000000000000000000000000000000000000000815260040161253f929190613adf565b60405180910390fd5b505050565b60606000600161255c84612700565b01905060008167ffffffffffffffff81111561257b5761257a612fcc565b5b6040519080825280601f01601f1916602001820160405280156125ad5781602001600182028036833780820191505090505b509050600082602001820190505b600115612610578080600190039150507f3031323334353637383961626364656600000000000000000000000000000000600a86061a8153600a8581612604576126036135ec565b5b049450600085036125bb575b819350505050919050565b6126258383612853565b61263a6126306117de565b6000858585611e44565b505050565b60008073ffffffffffffffffffffffffffffffffffffffff168373ffffffffffffffffffffffffffffffffffffffff16141580156126f757508273ffffffffffffffffffffffffffffffffffffffff168473ffffffffffffffffffffffffffffffffffffffff1614806126b857506126b7848461158f565b5b806126f657508273ffffffffffffffffffffffffffffffffffffffff166126de836117a1565b73ffffffffffffffffffffffffffffffffffffffff16145b5b90509392505050565b600080600090507a184f03e93ff9f4daa797ed6e38ed64bf6a1f010000000000000000831061275e577a184f03e93ff9f4daa797ed6e38ed64bf6a1f0100000000000000008381612754576127536135ec565b5b0492506040810190505b6d04ee2d6d415b85acef8100000000831061279b576d04ee2d6d415b85acef81000000008381612791576127906135ec565b5b0492506020810190505b662386f26fc1000083106127ca57662386f26fc1000083816127c0576127bf6135ec565b5b0492506010810190505b6305f5e10083106127f3576305f5e10083816127e9576127e86135ec565b5b0492506008810190505b612710831061281857612710838161280e5761280d6135ec565b5b0492506004810190505b6064831061283b5760648381612831576128306135ec565b5b0492506002810190505b600a831061284a576001810190505b80915050919050565b600073ffffffffffffffffffffffffffffffffffffffff168273ffffffffffffffffffffffffffffffffffffffff16036128c55760006040517f64a0ae920000000000000000000000000000000000000000000000000000000081526004016128bc9190612b93565b60405180910390fd5b60006128d383836000611991565b9050600073ffffffffffffffffffffffffffffffffffffffff168173ffffffffffffffffffffffffffffffffffffffff16146129475760006040517f73c6ac6e00000000000000000000000000000000000000000000000000000000815260040161293e9190612b93565b60405180910390fd5b505050565b6040518060600160405280600390602082028036833780820191505090505090565b6000604051905090565b600080fd5b600080fd5b60007fffffffff0000000000000000000000000000000000000000000000000000000082169050919050565b6129b781612982565b81146129c257600080fd5b50565b6000813590506129d4816129ae565b92915050565b6000602082840312156129f0576129ef612978565b5b60006129fe848285016129c5565b91505092915050565b60008115159050919050565b612a1c81612a07565b82525050565b6000602082019050612a376000830184612a13565b92915050565b600081519050919050565b600082825260208201905092915050565b60005b83811015612a77578082015181840152602081019050612a5c565b60008484015250505050565b6000601f19601f8301169050919050565b6000612a9f82612a3d565b612aa98185612a48565b9350612ab9818560208601612a59565b612ac281612a83565b840191505092915050565b60006020820190508181036000830152612ae78184612a94565b905092915050565b6000819050919050565b612b0281612aef565b8114612b0d57600080fd5b50565b600081359050612b1f81612af9565b92915050565b600060208284031215612b3b57612b3a612978565b5b6000612b4984828501612b10565b91505092915050565b600073ffffffffffffffffffffffffffffffffffffffff82169050919050565b6000612b7d82612b52565b9050919050565b612b8d81612b72565b82525050565b6000602082019050612ba86000830184612b84565b92915050565b612bb781612b72565b8114612bc257600080fd5b50565b600081359050612bd481612bae565b92915050565b60008060408385031215612bf157612bf0612978565b5b6000612bff85828601612bc5565b9250506020612c1085828601612b10565b9150509250929050565b612c2381612aef565b82525050565b6000602082019050612c3e6000830184612c1a565b92915050565b600080fd5b600080fd5b600080fd5b60008083601f840112612c6957612c68612c44565b5b8235905067ffffffffffffffff811115612c8657612c85612c49565b5b602083019150836020820283011115612ca257612ca1612c4e565b5b9250929050565b600080600060408486031215612cc257612cc1612978565b5b6000612cd086828701612b10565b935050602084013567ffffffffffffffff811115612cf157612cf061297d565b5b612cfd86828701612c53565b92509250509250925092565b600080600060608486031215612d2257612d21612978565b5b6000612d3086828701612bc5565b9350506020612d4186828701612bc5565b9250506040612d5286828701612b10565b9150509250925092565b600060039050919050565b600081905092915050565b6000819050919050565b612d8581612aef565b82525050565b6000612d978383612d7c565b60208301905092915050565b6000602082019050919050565b612db981612d5c565b612dc38184612d67565b9250612dce82612d72565b8060005b83811015612dff578151612de68782612d8b565b9650612df183612da3565b925050600181019050612dd2565b505050505050565b6000606082019050612e1c6000830184612db0565b92915050565b600060208284031215612e3857612e37612978565b5b6000612e4684828501612bc5565b91505092915050565b6000819050919050565b6000612e74612e6f612e6a84612b52565b612e4f565b612b52565b9050919050565b6000612e8682612e59565b9050919050565b6000612e9882612e7b565b9050919050565b612ea881612e8d565b82525050565b6000602082019050612ec36000830184612e9f565b92915050565b612ed281612a07565b8114612edd57600080fd5b50565b600081359050612eef81612ec9565b92915050565b60008060408385031215612f0c57612f0b612978565b5b6000612f1a85828601612bc5565b9250506020612f2b85828601612ee0565b9150509250929050565b7f4e487b7100000000000000000000000000000000000000000000000000000000600052602160045260246000fd5b60038110612f7557612f74612f35565b5b50565b6000819050612f8682612f64565b919050565b6000612f9682612f78565b9050919050565b612fa681612f8b565b82525050565b6000602082019050612fc16000830184612f9d565b92915050565b600080fd5b7f4e487b7100000000000000000000000000000000000000000000000000000000600052604160045260246000fd5b61300482612a83565b810181811067ffffffffffffffff8211171561302357613022612fcc565b5b80604052505050565b600061303661296e565b90506130428282612ffb565b919050565b600067ffffffffffffffff82111561306257613061612fcc565b5b61306b82612a83565b9050602081019050919050565b82818337600083830152505050565b600061309a61309584613047565b61302c565b9050828152602081018484840111156130b6576130b5612fc7565b5b6130c1848285613078565b509392505050565b600082601f8301126130de576130dd612c44565b5b81356130ee848260208601613087565b91505092915050565b6000806000806080858703121561311157613110612978565b5b600061311f87828801612bc5565b945050602061313087828801612bc5565b935050604061314187828801612b10565b925050606085013567ffffffffffffffff8111156131625761316161297d565b5b61316e878288016130c9565b91505092959194509250565b6000806040838503121561319157613190612978565b5b600061319f85828601612bc5565b92505060206131b085828601612bc5565b9150509250929050565b7f4e487b7100000000000000000000000000000000000000000000000000000000600052602260045260246000fd5b6000600282049050600182168061320157607f821691505b602082108103613214576132136131ba565b5b50919050565b600060408201905061322f6000830185612b84565b61323c6020830184612b84565b9392505050565b60006060820190506132586000830186612b84565b6132656020830185612c1a565b6132726040830184612b84565b949350505050565b600081905092915050565b50565b600061329560008361327a565b91506132a082613285565b600082019050919050565b60006132b682613288565b9150819050919050565b7f4e487b7100000000000000000000000000000000000000000000000000000000600052603260045260246000fd5b7f4d7573742062652070726f706f736564206f776e657200000000000000000000600082015250565b6000613325601683612a48565b9150613330826132ef565b602082019050919050565b6000602082019050818103600083015261335481613318565b9050919050565b60006060820190506133706000830186612b84565b61337d6020830185612b84565b61338a6040830184612b84565b949350505050565b7f4e487b7100000000000000000000000000000000000000000000000000000000600052601160045260246000fd5b60006133cc82612aef565b91506133d783612aef565b92508282019050808211156133ef576133ee613392565b5b92915050565b6000819050919050565b613408816133f5565b82525050565b600061ffff82169050919050565b6134258161340e565b82525050565b600063ffffffff82169050919050565b6134448161342b565b82525050565b600081519050919050565b600082825260208201905092915050565b60006134718261344a565b61347b8185613455565b935061348b818560208601612a59565b61349481612a83565b840191505092915050565b600060c0830160008301516134b760008601826133ff565b5060208301516134ca6020860182612d7c565b5060408301516134dd604086018261341c565b5060608301516134f0606086018261343b565b506080830151613503608086018261343b565b5060a083015184820360a086015261351b8282613466565b9150508091505092915050565b60006020820190508181036000830152613542818461349f565b905092915050565b60008151905061355981612af9565b92915050565b60006020828403121561357557613574612978565b5b60006135838482850161354a565b91505092915050565b600081905092915050565b60006135a282612a3d565b6135ac818561358c565b93506135bc818560208601612a59565b80840191505092915050565b60006135d48285613597565b91506135e08284613597565b91508190509392505050565b7f4e487b7100000000000000000000000000000000000000000000000000000000600052601260045260246000fd5b600061362682612aef565b915061363183612aef565b925082613641576136406135ec565b5b828206905092915050565b60006040820190506136616000830185612f9d565b61366e6020830184612b84565b9392505050565b7f4f6e6c792063616c6c61626c65206279206f776e657200000000000000000000600082015250565b60006136ab601683612a48565b91506136b682613675565b602082019050919050565b600060208201905081810360008301526136da8161369e565b9050919050565b6136ea81612a07565b82525050565b60208201600082015161370660008501826136e1565b50505050565b600060208201905061372160008301846136f0565b92915050565b600082825260208201905092915050565b60006137438261344a565b61374d8185613727565b935061375d818560208601612a59565b61376681612a83565b840191505092915050565b60006080820190506137866000830187612b84565b6137936020830186612b84565b6137a06040830185612c1a565b81810360608301526137b28184613738565b905095945050505050565b6000815190506137cc816129ae565b92915050565b6000602082840312156137e8576137e7612978565b5b60006137f6848285016137bd565b91505092915050565b7f43616e6e6f74207472616e7366657220746f2073656c66000000000000000000600082015250565b6000613835601783612a48565b9150613840826137ff565b602082019050919050565b6000602082019050818103600083015261386481613828565b9050919050565b60008190508160005260206000209050919050565b60006020601f8301049050919050565b600082821b905092915050565b6000600883026138cd7fffffffffffffffffffffffffffffffffffffffffffffffffffffffffffffffff82613890565b6138d78683613890565b95508019841693508086168417925050509392505050565b600061390a61390561390084612aef565b612e4f565b612aef565b9050919050565b6000819050919050565b613924836138ef565b61393861393082613911565b84845461389d565b825550505050565b600090565b61394d613940565b61395881848461391b565b505050565b5b8181101561397c57613971600082613945565b60018101905061395e565b5050565b601f8211156139c1576139928161386b565b61399b84613880565b810160208510156139aa578190505b6139be6139b685613880565b83018261395d565b50505b505050565b600082821c905092915050565b60006139e4600019846008026139c6565b1980831691505092915050565b60006139fd83836139d3565b9150826002028217905092915050565b613a1682612a3d565b67ffffffffffffffff811115613a2f57613a2e612fcc565b5b613a3982546131e9565b613a44828285613980565b600060209050601f831160018114613a775760008415613a65578287015190505b613a6f85826139f1565b865550613ad7565b601f198416613a858661386b565b60005b82811015613aad57848901518255600182019150602085019450602081019050613a88565b86831015613aca5784890151613ac6601f8916826139d3565b8355505b6001600288020188555050505b505050505050565b6000604082019050613af46000830185612b84565b613b016020830184612c1a565b939250505056fea2646970667358221220263ee84d207d144a2f9b5365b1e6ce425e7a041cc49e1ed12e36ba5d728877bf64736f6c634300081c0033",
  "devdoc": {
    "errors": {
      "ERC721IncorrectOwner(address,uint256,address)": [
        {
          "details": "Indicates an error related to the ownership over a particular token. Used in transfers.",
          "params": {
            "owner": "Address of the current owner of a token.",
            "sender": "Address whose tokens are being transferred.",
            "tokenId": "Identifier number of a token."
          }
        }
      ],
      "ERC721InsufficientApproval(address,uint256)": [
        {
          "details": "Indicates a failure with the `operator`s approval. Used in transfers.",
          "params": {
            "operator": "Address that may be allowed to operate on tokens without being their owner.",
            "tokenId": "Identifier number of a token."
          }
        }
      ],
      "ERC721InvalidApprover(address)": [
        {
          "details": "Indicates a failure with the `approver` of a token to be approved. Used in approvals.",
          "params": {
            "approver": "Address initiating an approval operation."
          }
        }
      ],
      "ERC721InvalidOperator(address)": [
        {
          "details": "Indicates a failure with the `operator` to be approved. Used in approvals.",
          "params": {
            "operator": "Address that may be allowed to operate on tokens without being their owner."
          }
        }
      ],
      "ERC721InvalidOwner(address)": [
        {
          "details": "Indicates that an address can't be an owner. For example, `address(0)` is a forbidden owner in ERC-20. Used in balance queries.",
          "params": {
            "owner": "Address of the current owner of a token."
          }
        }
      ],
      "ERC721InvalidReceiver(address)": [
        {
          "details": "Indicates a failure with the token `receiver`. Used in transfers.",
          "params": {
            "receiver": "Address to which tokens are being transferred."
          }
        }
      ],
      "ERC721InvalidSender(address)": [
        {
          "details": "Indicates a failure with the token `sender`. Used in transfers.",
          "params": {
            "sender": "Address whose tokens are being transferred."
          }
        }
      ],
      "ERC721NonexistentToken(uint256)": [
        {
          "details": "Indicates a `tokenId` whose `owner` is the zero address.",
          "params": {
            "tokenId": "Identifier number of a token."
          }
        }
      ]
    },
    "events": {
      "Approval(address,address,uint256)": {
        "details": "Emitted when `owner` enables `approved` to manage the `tokenId` token."
      },
      "ApprovalForAll(address,address,bool)": {
        "details": "Emitted when `owner` enables or disables (`approved`) `operator` to manage all of its assets."
      },
      "BatchMetadataUpdate(uint256,uint256)": {
        "details": "This event emits when the metadata of a range of tokens is changed. So that the third-party platforms such as NFT market could timely update the images and related attributes of the NFTs."
      },
      "MetadataUpdate(uint256)": {
        "details": "This event emits when the metadata of a token is changed. So that the third-party platforms such as NFT market could timely update the images and related attributes of the NFT."
      },
      "Transfer(address,address,uint256)": {
        "details": "Emitted when `tokenId` token is transferred from `from` to `to`."
      }
    },
    "kind": "dev",
    "methods": {
      "approve(address,uint256)": {
        "details": "See {IERC721-approve}."
      },
      "balanceOf(address)": {
        "details": "See {IERC721-balanceOf}."
      },
      "getApproved(uint256)": {
        "details": "See {IERC721-getApproved}."
      },
      "isApprovedForAll(address,address)": {
        "details": "See {IERC721-isApprovedForAll}."
      },
      "name()": {
        "details": "See {IERC721Metadata-name}."
      },
      "ownerOf(uint256)": {
        "details": "See {IERC721-ownerOf}."
      },
      "safeTransferFrom(address,address,uint256)": {
        "details": "See {IERC721-safeTransferFrom}."
      },
      "safeTransferFrom(address,address,uint256,bytes)": {
        "details": "See {IERC721-safeTransferFrom}."
      },
      "setApprovalForAll(address,bool)": {
        "details": "See {IERC721-setApprovalForAll}."
      },
      "supportsInterface(bytes4)": {
        "details": "See {IERC165-supportsInterface}"
      },
      "symbol()": {
        "details": "See {IERC721Metadata-symbol}."
      },
      "tokenURI(uint256)": {
        "details": "See {IERC721Metadata-tokenURI}."
      },
      "transferFrom(address,address,uint256)": {
        "details": "See {IERC721-transferFrom}."
      }
    },
    "version": 1
  },
  "userdoc": {
    "kind": "user",
    "methods": {
      "acceptOwnership()": {
        "notice": "Allows an ownership transfer to be completed by the recipient."
      },
      "owner()": {
        "notice": "Get the current owner"
      },
      "setCoordinator(address)": {
        "notice": "Sets the VRF Coordinator addressThis method should only be callable by the coordinator or contract owner"
      },
      "transferOwnership(address)": {
        "notice": "Allows an owner to begin transferring ownership to a new address."
      }
    },
    "version": 1
  },
  "storageLayout": {
    "storage": [
      {
        "astId": 727,
        "contract": "contracts/RandomIpfsNft.sol:RandomIpfsNft",
        "label": "_name",
        "offset": 0,
        "slot": "0",
        "type": "t_string_storage"
      },
      {
        "astId": 729,
        "contract": "contracts/RandomIpfsNft.sol:RandomIpfsNft",
        "label": "_symbol",
        "offset": 0,
        "slot": "1",
        "type": "t_string_storage"
      },
      {
        "astId": 733,
        "contract": "contracts/RandomIpfsNft.sol:RandomIpfsNft",
        "label": "_owners",
        "offset": 0,
        "slot": "2",
        "type": "t_mapping(t_uint256,t_address)"
      },
      {
        "astId": 737,
        "contract": "contracts/RandomIpfsNft.sol:RandomIpfsNft",
        "label": "_balances",
        "offset": 0,
        "slot": "3",
        "type": "t_mapping(t_address,t_uint256)"
      },
      {
        "astId": 741,
        "contract": "contracts/RandomIpfsNft.sol:RandomIpfsNft",
        "label": "_tokenApprovals",
        "offset": 0,
        "slot": "4",
        "type": "t_mapping(t_uint256,t_address)"
      },
      {
        "astId": 747,
        "contract": "contracts/RandomIpfsNft.sol:RandomIpfsNft",
        "label": "_operatorApprovals",
        "offset": 0,
        "slot": "5",
        "type": "t_mapping(t_address,t_mapping(t_address,t_bool))"
      },
      {
        "astId": 1814,
        "contract": "contracts/RandomIpfsNft.sol:RandomIpfsNft",
        "label": "_tokenURIs",
        "offset": 0,
        "slot": "6",
        "type": "t_mapping(t_uint256,t_string_storage)"
      },
      {
        "astId": 29,
        "contract": "contracts/RandomIpfsNft.sol:RandomIpfsNft",
        "label": "s_owner",
        "offset": 0,
        "slot": "7",
        "type": "t_address"
      },
      {
        "astId": 31,
        "contract": "contracts/RandomIpfsNft.sol:RandomIpfsNft",
        "label": "s_pendingOwner",
        "offset": 0,
        "slot": "8",
        "type": "t_address"
      },
      {
        "astId": 231,
        "contract": "contracts/RandomIpfsNft.sol:RandomIpfsNft",
        "label": "s_vrfCoordinator",
        "offset": 0,
        "slot": "9",
        "type": "t_contract(IVRFCoordinatorV2Plus)380"
      },
      {
        "astId": 6885,
        "contract": "contracts/RandomIpfsNft.sol:RandomIpfsNft",
        "label": "s_requestIdToSender",
        "offset": 0,
        "slot": "10",
        "type": "t_mapping(t_uint256,t_address)"
      },
      {
        "astId": 6887,
        "contract": "contracts/RandomIpfsNft.sol:RandomIpfsNft",
        "label": "s_tokenCounter",
        "offset": 0,
        "slot": "11",
        "type": "t_uint256"
      },
      {
        "astId": 6893,
        "contract": "contracts/RandomIpfsNft.sol:RandomIpfsNft",
        "label": "s_dogeTokenUrls",
        "offset": 0,
        "slot": "12",
        "type": "t_array(t_string_storage)dyn_storage"
      }
    ],
    "types": {
      "t_address": {
        "encoding": "inplace",
        "label": "address",
        "numberOfBytes": "20"
      },
      "t_array(t_string_storage)dyn_storage": {
        "base": "t_string_storage",
        "encoding": "dynamic_array",
        "label": "string[]",
        "numberOfBytes": "32"
      },
      "t_bool": {
        "encoding": "inplace",
        "label": "bool",
        "numberOfBytes": "1"
      },
      "t_contract(IVRFCoordinatorV2Plus)380": {
        "encoding": "inplace",
        "label": "contract IVRFCoordinatorV2Plus",
        "numberOfBytes": "20"
      },
      "t_mapping(t_address,t_bool)": {
        "encoding": "mapping",
        "key": "t_address",
        "label": "mapping(address => bool)",
        "numberOfBytes": "32",
        "value": "t_bool"
      },
      "t_mapping(t_address,t_mapping(t_address,t_bool))": {
        "encoding": "mapping",
        "key": "t_address",
        "label": "mapping(address => mapping(address => bool))",
        "numberOfBytes": "32",
        "value": "t_mapping(t_address,t_bool)"
      },
      "t_mapping(t_address,t_uint256)": {
        "encoding": "mapping",
        "key": "t_address",
        "label": "mapping(address => uint256)",
        "numberOfBytes": "32",
        "value": "t_uint256"
      },
      "t_mapping(t_uint256,t_address)": {
        "encoding": "mapping",
        "key": "t_uint256",
        "label": "mapping(uint256 => address)",
        "numberOfBytes": "32",
        "value": "t_address"
      },
      "t_mapping(t_uint256,t_string_storage)": {
        "encoding": "mapping",
        "key": "t_uint256",
        "label": "mapping(uint256 => string)",
        "numberOfBytes": "32",
        "value": "t_string_storage"
      },
      "t_string_storage": {
        "encoding": "bytes",
        "label": "string",
        "numberOfBytes": "32"
      },
      "t_uint256": {
        "encoding": "inplace",
        "label": "uint256",
        "numberOfBytes": "32"
      }
    }
  }
}